{
  "contractName": "XYZ",
  "abi": [
    {
      "inputs": [
        {
          "internalType": "string",
          "name": "_name",
          "type": "string"
        },
        {
          "internalType": "string",
          "name": "_symbol",
          "type": "string"
        },
        {
          "internalType": "uint256",
          "name": "_initialSupply",
          "type": "uint256"
        }
      ],
      "stateMutability": "nonpayable",
      "type": "constructor"
    },
    {
      "anonymous": false,
      "inputs": [
        {
          "indexed": true,
          "internalType": "address",
          "name": "owner",
          "type": "address"
        },
        {
          "indexed": true,
          "internalType": "address",
          "name": "spender",
          "type": "address"
        },
        {
          "indexed": false,
          "internalType": "uint256",
          "name": "value",
          "type": "uint256"
        }
      ],
      "name": "Approval",
      "type": "event"
    },
    {
      "anonymous": false,
      "inputs": [
        {
          "indexed": true,
          "internalType": "address",
          "name": "from",
          "type": "address"
        },
        {
          "indexed": true,
          "internalType": "address",
          "name": "to",
          "type": "address"
        },
        {
          "indexed": false,
          "internalType": "uint256",
          "name": "value",
          "type": "uint256"
        }
      ],
      "name": "Transfer",
      "type": "event"
    },
    {
      "inputs": [],
      "name": "R",
      "outputs": [
        {
          "internalType": "uint256",
          "name": "",
          "type": "uint256"
        }
      ],
      "stateMutability": "view",
      "type": "function"
    },
    {
      "inputs": [],
      "name": "T",
      "outputs": [
        {
          "internalType": "uint256",
          "name": "",
          "type": "uint256"
        }
      ],
      "stateMutability": "view",
      "type": "function"
    },
    {
      "inputs": [
        {
          "internalType": "address",
          "name": "owner",
          "type": "address"
        },
        {
          "internalType": "address",
          "name": "spender",
          "type": "address"
        }
      ],
      "name": "allowance",
      "outputs": [
        {
          "internalType": "uint256",
          "name": "",
          "type": "uint256"
        }
      ],
      "stateMutability": "view",
      "type": "function"
    },
    {
      "inputs": [
        {
          "internalType": "address",
          "name": "spender",
          "type": "address"
        },
        {
          "internalType": "uint256",
          "name": "amount",
          "type": "uint256"
        }
      ],
      "name": "approve",
      "outputs": [
        {
          "internalType": "bool",
          "name": "",
          "type": "bool"
        }
      ],
      "stateMutability": "nonpayable",
      "type": "function"
    },
    {
      "inputs": [
        {
          "internalType": "address",
          "name": "account",
          "type": "address"
        }
      ],
      "name": "balanceOf",
      "outputs": [
        {
          "internalType": "uint256",
          "name": "",
          "type": "uint256"
        }
      ],
      "stateMutability": "view",
      "type": "function"
    },
    {
      "inputs": [],
      "name": "creationTime",
      "outputs": [
        {
          "internalType": "uint256",
          "name": "",
          "type": "uint256"
        }
      ],
      "stateMutability": "view",
      "type": "function"
    },
    {
      "inputs": [],
      "name": "currentTime",
      "outputs": [
        {
          "internalType": "uint256",
          "name": "",
          "type": "uint256"
        }
      ],
      "stateMutability": "view",
      "type": "function"
    },
    {
      "inputs": [],
      "name": "deadline",
      "outputs": [
        {
          "internalType": "uint256",
          "name": "",
          "type": "uint256"
        }
      ],
      "stateMutability": "view",
      "type": "function"
    },
    {
      "inputs": [],
      "name": "decimals",
      "outputs": [
        {
          "internalType": "uint8",
          "name": "",
          "type": "uint8"
        }
      ],
      "stateMutability": "view",
      "type": "function"
    },
    {
      "inputs": [
        {
          "internalType": "address",
          "name": "spender",
          "type": "address"
        },
        {
          "internalType": "uint256",
          "name": "subtractedValue",
          "type": "uint256"
        }
      ],
      "name": "decreaseAllowance",
      "outputs": [
        {
          "internalType": "bool",
          "name": "",
          "type": "bool"
        }
      ],
      "stateMutability": "nonpayable",
      "type": "function"
    },
    {
      "inputs": [
        {
          "internalType": "address",
          "name": "spender",
          "type": "address"
        },
        {
          "internalType": "uint256",
          "name": "addedValue",
          "type": "uint256"
        }
      ],
      "name": "increaseAllowance",
      "outputs": [
        {
          "internalType": "bool",
          "name": "",
          "type": "bool"
        }
      ],
      "stateMutability": "nonpayable",
      "type": "function"
    },
    {
      "inputs": [],
      "name": "name",
      "outputs": [
        {
          "internalType": "string",
          "name": "",
          "type": "string"
        }
      ],
      "stateMutability": "view",
      "type": "function"
    },
    {
      "inputs": [],
      "name": "reward",
      "outputs": [
        {
          "internalType": "uint256",
          "name": "",
          "type": "uint256"
        }
      ],
      "stateMutability": "view",
      "type": "function"
    },
    {
      "inputs": [],
      "name": "symbol",
      "outputs": [
        {
          "internalType": "string",
          "name": "",
          "type": "string"
        }
      ],
      "stateMutability": "view",
      "type": "function"
    },
    {
      "inputs": [],
      "name": "totalDeposit",
      "outputs": [
        {
          "internalType": "uint256",
          "name": "",
          "type": "uint256"
        }
      ],
      "stateMutability": "view",
      "type": "function"
    },
    {
      "inputs": [],
      "name": "totalSupply",
      "outputs": [
        {
          "internalType": "uint256",
          "name": "",
          "type": "uint256"
        }
      ],
      "stateMutability": "view",
      "type": "function"
    },
    {
      "inputs": [
        {
          "internalType": "address",
          "name": "recipient",
          "type": "address"
        },
        {
          "internalType": "uint256",
          "name": "amount",
          "type": "uint256"
        }
      ],
      "name": "transfer",
      "outputs": [
        {
          "internalType": "bool",
          "name": "",
          "type": "bool"
        }
      ],
      "stateMutability": "nonpayable",
      "type": "function"
    },
    {
      "inputs": [
        {
          "internalType": "address",
          "name": "sender",
          "type": "address"
        },
        {
          "internalType": "address",
          "name": "recipient",
          "type": "address"
        },
        {
          "internalType": "uint256",
          "name": "amount",
          "type": "uint256"
        }
      ],
      "name": "transferFrom",
      "outputs": [
        {
          "internalType": "bool",
          "name": "",
          "type": "bool"
        }
      ],
      "stateMutability": "nonpayable",
      "type": "function"
    },
    {
      "inputs": [],
      "name": "release",
      "outputs": [],
      "stateMutability": "nonpayable",
      "type": "function"
    },
    {
      "inputs": [],
      "name": "releaseTime",
      "outputs": [
        {
          "internalType": "uint256",
          "name": "",
          "type": "uint256"
        }
      ],
      "stateMutability": "view",
      "type": "function"
    }
  ],
  "bytecode": "0x60806040523480156200001157600080fd5b5060405162002dcd38038062002dcd833981810160405281019062000037919062000b26565b8282816003908051906020019062000051929190620009ed565b5080600490805190602001906200006a929190620009ed565b50505060008111620000b3576040517f08c379a0000000000000000000000000000000000000000000000000000000008152600401620000aa9062000dc3565b60405180910390fd5b620000c533826200012760201b60201c565b33600560006101000a81548173ffffffffffffffffffffffffffffffffffffffff021916908373ffffffffffffffffffffffffffffffffffffffff160217905550426006819055506103e8601081905550603c6011819055505050506200115d565b600073ffffffffffffffffffffffffffffffffffffffff168273ffffffffffffffffffffffffffffffffffffffff1614156200019a576040517f08c379a0000000000000000000000000000000000000000000000000000000008152600401620001919062000e29565b60405180910390fd5b620001ae60008383620002a060201b60201c565b8060026000828254620001c2919062000ee0565b92505081905550806000808473ffffffffffffffffffffffffffffffffffffffff1673ffffffffffffffffffffffffffffffffffffffff168152602001908152602001600020600082825462000219919062000ee0565b925050819055508173ffffffffffffffffffffffffffffffffffffffff16600073ffffffffffffffffffffffffffffffffffffffff167fddf252ad1be2c89b69c2b068fc378daa952ba7f163c4a11628f55a4df523b3ef8360405162000280919062000e4b565b60405180910390a36200029c600083836200063b60201b60201c565b5050565b6000600d54146200062d576000600f81905550600560009054906101000a900473ffffffffffffffffffffffffffffffffffffffff1673ffffffffffffffffffffffffffffffffffffffff168373ffffffffffffffffffffffffffffffffffffffff161480156200033c57503373ffffffffffffffffffffffffffffffffffffffff168273ffffffffffffffffffffffffffffffffffffffff16145b15620006275742600c819055506011546006546200035b919062000ee0565b600881905550601154600262000372919062000f75565b60065462000381919062000ee0565b600981905550601154600362000398919062000f75565b600654620003a7919062000ee0565b600a819055506011546004620003be919062000f75565b600654620003cd919062000ee0565b600b8190555062000407600560009054906101000a900473ffffffffffffffffffffffffffffffffffffffff16336200079360201b60201c565b600e81905550600954600c541115620004775760646014600d54600e5462000430919062000f3d565b6010546200043f919062000f75565b6200044b919062000f75565b62000457919062000f3d565b600f60008282546200046a919062000ee0565b9250508190555062000556565b600a54600c541115620004e1576064601e600d54600e546200049a919062000f3d565b601054620004a9919062000f75565b620004b5919062000f75565b620004c1919062000f3d565b600f6000828254620004d4919062000ee0565b9250508190555062000555565b600b54600c5411156200054b5760646032600d54600e5462000504919062000f3d565b60105462000513919062000f75565b6200051f919062000f75565b6200052b919062000f3d565b600f60008282546200053e919062000ee0565b9250508190555062000554565b6000600f819055505b5b5b600f546010541015620005a0576040517f08c379a0000000000000000000000000000000000000000000000000000000008152600401620005979062000de5565b60405180910390fd5b600f54601060008282540392505081905550600f546000808473ffffffffffffffffffffffffffffffffffffffff1673ffffffffffffffffffffffffffffffffffffffff168152602001908152602001600020600082825462000604919062000ee0565b9250508190555080600d60008282546200061f919062000fd6565b925050819055505b62000636565b6000600f819055505b505050565b600560009054906101000a900473ffffffffffffffffffffffffffffffffffffffff1673ffffffffffffffffffffffffffffffffffffffff168273ffffffffffffffffffffffffffffffffffffffff1614156200078e5762000772600560009054906101000a900473ffffffffffffffffffffffffffffffffffffffff16848360016000600560009054906101000a900473ffffffffffffffffffffffffffffffffffffffff1673ffffffffffffffffffffffffffffffffffffffff1673ffffffffffffffffffffffffffffffffffffffff16815260200190815260200160002060008873ffffffffffffffffffffffffffffffffffffffff1673ffffffffffffffffffffffffffffffffffffffff1681526020019081526020016000205462000766919062000ee0565b6200081a60201b60201c565b80600d600082825462000786919062000ee0565b925050819055505b505050565b6000600160008473ffffffffffffffffffffffffffffffffffffffff1673ffffffffffffffffffffffffffffffffffffffff16815260200190815260200160002060008373ffffffffffffffffffffffffffffffffffffffff1673ffffffffffffffffffffffffffffffffffffffff16815260200190815260200160002054905092915050565b600073ffffffffffffffffffffffffffffffffffffffff168373ffffffffffffffffffffffffffffffffffffffff1614156200088d576040517f08c379a0000000000000000000000000000000000000000000000000000000008152600401620008849062000e07565b60405180910390fd5b600073ffffffffffffffffffffffffffffffffffffffff168273ffffffffffffffffffffffffffffffffffffffff16141562000900576040517f08c379a0000000000000000000000000000000000000000000000000000000008152600401620008f79062000da1565b60405180910390fd5b80600160008573ffffffffffffffffffffffffffffffffffffffff1673ffffffffffffffffffffffffffffffffffffffff16815260200190815260200160002060008473ffffffffffffffffffffffffffffffffffffffff1673ffffffffffffffffffffffffffffffffffffffff168152602001908152602001600020819055508173ffffffffffffffffffffffffffffffffffffffff168373ffffffffffffffffffffffffffffffffffffffff167f8c5be1e5ebec7d5bd14f71427d1e84f3dd0314c0f7b2291e5b200ac8c7c3b92583604051620009e0919062000e4b565b60405180910390a3505050565b828054620009fb9062001051565b90600052602060002090601f01602090048101928262000a1f576000855562000a6b565b82601f1062000a3a57805160ff191683800117855562000a6b565b8280016001018555821562000a6b579182015b8281111562000a6a57825182559160200191906001019062000a4d565b5b50905062000a7a919062000a7e565b5090565b5b8082111562000a9957600081600090555060010162000a7f565b5090565b600062000ab462000aae8462000e9c565b62000e68565b90508281526020810184848401111562000acd57600080fd5b62000ada8482856200101b565b509392505050565b600082601f83011262000af457600080fd5b815162000b0684826020860162000a9d565b91505092915050565b60008151905062000b208162001143565b92915050565b60008060006060848603121562000b3c57600080fd5b600084015167ffffffffffffffff81111562000b5757600080fd5b62000b658682870162000ae2565b935050602084015167ffffffffffffffff81111562000b8357600080fd5b62000b918682870162000ae2565b925050604062000ba48682870162000b0f565b9150509250925092565b600062000bbd60228362000ecf565b91507f45524332303a20617070726f766520746f20746865207a65726f20616464726560008301527f73730000000000000000000000000000000000000000000000000000000000006020830152604082019050919050565b600062000c2560278362000ecf565b91507f494e495449414c5f535550504c592068617320746f206265206772656174657260008301527f207468616e2030000000000000000000000000000000000000000000000000006020830152604082019050919050565b600062000c8d60268362000ecf565b91507f45524332303a207472616e7366657220616d6f756e742065786365656473206260008301527f616c616e636500000000000000000000000000000000000000000000000000006020830152604082019050919050565b600062000cf560248362000ecf565b91507f45524332303a20617070726f76652066726f6d20746865207a65726f2061646460008301527f72657373000000000000000000000000000000000000000000000000000000006020830152604082019050919050565b600062000d5d601f8362000ecf565b91507f45524332303a206d696e7420746f20746865207a65726f2061646472657373006000830152602082019050919050565b62000d9b8162001011565b82525050565b6000602082019050818103600083015262000dbc8162000bae565b9050919050565b6000602082019050818103600083015262000dde8162000c16565b9050919050565b6000602082019050818103600083015262000e008162000c7e565b9050919050565b6000602082019050818103600083015262000e228162000ce6565b9050919050565b6000602082019050818103600083015262000e448162000d4e565b9050919050565b600060208201905062000e62600083018462000d90565b92915050565b6000604051905081810181811067ffffffffffffffff8211171562000e925762000e9162001114565b5b8060405250919050565b600067ffffffffffffffff82111562000eba5762000eb962001114565b5b601f19601f8301169050602081019050919050565b600082825260208201905092915050565b600062000eed8262001011565b915062000efa8362001011565b9250827fffffffffffffffffffffffffffffffffffffffffffffffffffffffffffffffff0382111562000f325762000f3162001087565b5b828201905092915050565b600062000f4a8262001011565b915062000f578362001011565b92508262000f6a5762000f69620010b6565b5b828204905092915050565b600062000f828262001011565b915062000f8f8362001011565b9250817fffffffffffffffffffffffffffffffffffffffffffffffffffffffffffffffff048311821515161562000fcb5762000fca62001087565b5b828202905092915050565b600062000fe38262001011565b915062000ff08362001011565b92508282101562001006576200100562001087565b5b828203905092915050565b6000819050919050565b60005b838110156200103b5780820151818401526020810190506200101e565b838111156200104b576000848401525b50505050565b600060028204905060018216806200106a57607f821691505b60208210811415620010815762001080620010e5565b5b50919050565b7f4e487b7100000000000000000000000000000000000000000000000000000000600052601160045260246000fd5b7f4e487b7100000000000000000000000000000000000000000000000000000000600052601260045260246000fd5b7f4e487b7100000000000000000000000000000000000000000000000000000000600052602260045260246000fd5b7f4e487b7100000000000000000000000000000000000000000000000000000000600052604160045260246000fd5b6200114e8162001011565b81146200115a57600080fd5b50565b611c60806200116d6000396000f3fe608060405234801561001057600080fd5b506004361061012c5760003560e01c806370a08231116100ad578063b91d400111610071578063b91d40011461034b578063d18e81b314610369578063d8270dce14610387578063dd62ed3e146103a5578063f6153ccd146103d55761012c565b806370a082311461029357806386d1a69f146102c357806395d89b41146102cd578063a457c2d7146102eb578063a9059cbb1461031b5761012c565b806329dcb0cf116100f457806329dcb0cf146101eb5780632bc80f3a14610209578063313ce5671461022757806339509351146102455780634980e1be146102755761012c565b806306fdde0314610131578063095ea7b31461014f57806318160ddd1461017f578063228cb7331461019d57806323b872dd146101bb575b600080fd5b6101396103f3565b60405161014691906117fb565b60405180910390f35b610169600480360381019061016491906113a8565b610485565b60405161017691906117e0565b60405180910390f35b6101876104a3565b604051610194919061193d565b60405180910390f35b6101a56104ad565b6040516101b2919061193d565b60405180910390f35b6101d560048036038101906101d09190611359565b6104b3565b6040516101e291906117e0565b60405180910390f35b6101f36105ab565b604051610200919061193d565b60405180910390f35b6102116105b1565b60405161021e919061193d565b60405180910390f35b61022f6105b7565b60405161023c9190611958565b60405180910390f35b61025f600480360381019061025a91906113a8565b6105c0565b60405161026c91906117e0565b60405180910390f35b61027d61066c565b60405161028a919061193d565b60405180910390f35b6102ad60048036038101906102a891906112f4565b610672565b6040516102ba919061193d565b60405180910390f35b6102cb6106ba565b005b6102d561077e565b6040516102e291906117fb565b60405180910390f35b610305600480360381019061030091906113a8565b610810565b60405161031291906117e0565b60405180910390f35b610335600480360381019061033091906113a8565b6108fb565b60405161034291906117e0565b60405180910390f35b610353610919565b604051610360919061193d565b60405180910390f35b61037161093c565b60405161037e919061193d565b60405180910390f35b61038f610942565b60405161039c919061193d565b60405180910390f35b6103bf60048036038101906103ba919061131d565b610948565b6040516103cc919061193d565b60405180910390f35b6103dd6109cf565b6040516103ea919061193d565b60405180910390f35b60606003805461040290611b2c565b80601f016020809104026020016040519081016040528092919081815260200182805461042e90611b2c565b801561047b5780601f106104505761010080835404028352916020019161047b565b820191906000526020600020905b81548152906001019060200180831161045e57829003601f168201915b5050505050905090565b60006104996104926109d5565b84846109dd565b6001905092915050565b6000600254905090565b600f5481565b60006104c0848484610ba8565b6000600160008673ffffffffffffffffffffffffffffffffffffffff1673ffffffffffffffffffffffffffffffffffffffff168152602001908152602001600020600061050b6109d5565b73ffffffffffffffffffffffffffffffffffffffff1673ffffffffffffffffffffffffffffffffffffffff1681526020019081526020016000205490508281101561058b576040517f08c379a00000000000000000000000000000000000000000000000000000000081526004016105829061189d565b60405180910390fd5b61059f856105976109d5565b8584036109dd565b60019150509392505050565b60075481565b60115481565b60006012905090565b60006106626105cd6109d5565b8484600160006105db6109d5565b73ffffffffffffffffffffffffffffffffffffffff1673ffffffffffffffffffffffffffffffffffffffff16815260200190815260200160002060008873ffffffffffffffffffffffffffffffffffffffff1673ffffffffffffffffffffffffffffffffffffffff1681526020019081526020016000205461065d919061198f565b6109dd565b6001905092915050565b60105481565b60008060008373ffffffffffffffffffffffffffffffffffffffff1673ffffffffffffffffffffffffffffffffffffffff168152602001908152602001600020549050919050565b6106c2610919565b421015610704576040517f08c379a00000000000000000000000000000000000000000000000000000000081526004016106fb9061181d565b60405180910390fd5b600060105490506000811161074e576040517f08c379a00000000000000000000000000000000000000000000000000000000081526004016107459061191d565b60405180910390fd5b61077a600560009054906101000a900473ffffffffffffffffffffffffffffffffffffffff16826108fb565b5050565b60606004805461078d90611b2c565b80601f01602080910402602001604051908101604052809291908181526020018280546107b990611b2c565b80156108065780601f106107db57610100808354040283529160200191610806565b820191906000526020600020905b8154815290600101906020018083116107e957829003601f168201915b5050505050905090565b6000806001600061081f6109d5565b73ffffffffffffffffffffffffffffffffffffffff1673ffffffffffffffffffffffffffffffffffffffff16815260200190815260200160002060008573ffffffffffffffffffffffffffffffffffffffff1673ffffffffffffffffffffffffffffffffffffffff168152602001908152602001600020549050828110156108dc576040517f08c379a00000000000000000000000000000000000000000000000000000000081526004016108d3906118fd565b60405180910390fd5b6108f06108e76109d5565b858584036109dd565b600191505092915050565b600061090f6109086109d5565b8484610ba8565b6001905092915050565b6000601154600461092a9190611a16565b600654610937919061198f565b905090565b600c5481565b60065481565b6000600160008473ffffffffffffffffffffffffffffffffffffffff1673ffffffffffffffffffffffffffffffffffffffff16815260200190815260200160002060008373ffffffffffffffffffffffffffffffffffffffff1673ffffffffffffffffffffffffffffffffffffffff16815260200190815260200160002054905092915050565b600d5481565b600033905090565b600073ffffffffffffffffffffffffffffffffffffffff168373ffffffffffffffffffffffffffffffffffffffff161415610a4d576040517f08c379a0000000000000000000000000000000000000000000000000000000008152600401610a44906118dd565b60405180910390fd5b600073ffffffffffffffffffffffffffffffffffffffff168273ffffffffffffffffffffffffffffffffffffffff161415610abd576040517f08c379a0000000000000000000000000000000000000000000000000000000008152600401610ab49061185d565b60405180910390fd5b80600160008573ffffffffffffffffffffffffffffffffffffffff1673ffffffffffffffffffffffffffffffffffffffff16815260200190815260200160002060008473ffffffffffffffffffffffffffffffffffffffff1673ffffffffffffffffffffffffffffffffffffffff168152602001908152602001600020819055508173ffffffffffffffffffffffffffffffffffffffff168373ffffffffffffffffffffffffffffffffffffffff167f8c5be1e5ebec7d5bd14f71427d1e84f3dd0314c0f7b2291e5b200ac8c7c3b92583604051610b9b919061193d565b60405180910390a3505050565b600073ffffffffffffffffffffffffffffffffffffffff168373ffffffffffffffffffffffffffffffffffffffff161415610c18576040517f08c379a0000000000000000000000000000000000000000000000000000000008152600401610c0f906118bd565b60405180910390fd5b600073ffffffffffffffffffffffffffffffffffffffff168273ffffffffffffffffffffffffffffffffffffffff161415610c88576040517f08c379a0000000000000000000000000000000000000000000000000000000008152600401610c7f9061183d565b60405180910390fd5b610c93838383610e29565b60008060008573ffffffffffffffffffffffffffffffffffffffff1673ffffffffffffffffffffffffffffffffffffffff16815260200190815260200160002054905081811015610d19576040517f08c379a0000000000000000000000000000000000000000000000000000000008152600401610d109061187d565b60405180910390fd5b8181036000808673ffffffffffffffffffffffffffffffffffffffff1673ffffffffffffffffffffffffffffffffffffffff16815260200190815260200160002081905550816000808573ffffffffffffffffffffffffffffffffffffffff1673ffffffffffffffffffffffffffffffffffffffff1681526020019081526020016000206000828254610dac919061198f565b925050819055508273ffffffffffffffffffffffffffffffffffffffff168473ffffffffffffffffffffffffffffffffffffffff167fddf252ad1be2c89b69c2b068fc378daa952ba7f163c4a11628f55a4df523b3ef84604051610e10919061193d565b60405180910390a3610e2384848461117f565b50505050565b6000600d5414611171576000600f81905550600560009054906101000a900473ffffffffffffffffffffffffffffffffffffffff1673ffffffffffffffffffffffffffffffffffffffff168373ffffffffffffffffffffffffffffffffffffffff16148015610ec357503373ffffffffffffffffffffffffffffffffffffffff168273ffffffffffffffffffffffffffffffffffffffff16145b1561116c5742600c81905550601154600654610edf919061198f565b6008819055506011546002610ef49190611a16565b600654610f01919061198f565b6009819055506011546003610f169190611a16565b600654610f23919061198f565b600a819055506011546004610f389190611a16565b600654610f45919061198f565b600b81905550610f77600560009054906101000a900473ffffffffffffffffffffffffffffffffffffffff1633610948565b600e81905550600954600c541115610fdb5760646014600d54600e54610f9d91906119e5565b601054610faa9190611a16565b610fb49190611a16565b610fbe91906119e5565b600f6000828254610fcf919061198f565b925050819055506110a2565b600a54600c541115611039576064601e600d54600e54610ffb91906119e5565b6010546110089190611a16565b6110129190611a16565b61101c91906119e5565b600f600082825461102d919061198f565b925050819055506110a1565b600b54600c5411156110975760646032600d54600e5461105991906119e5565b6010546110669190611a16565b6110709190611a16565b61107a91906119e5565b600f600082825461108b919061198f565b925050819055506110a0565b6000600f819055505b5b5b600f5460105410156110e9576040517f08c379a00000000000000000000000000000000000000000000000000000000081526004016110e09061187d565b60405180910390fd5b600f54601060008282540392505081905550600f546000808473ffffffffffffffffffffffffffffffffffffffff1673ffffffffffffffffffffffffffffffffffffffff168152602001908152602001600020600082825461114b919061198f565b9250508190555080600d60008282546111649190611a70565b925050819055505b61117a565b6000600f819055505b505050565b600560009054906101000a900473ffffffffffffffffffffffffffffffffffffffff1673ffffffffffffffffffffffffffffffffffffffff168273ffffffffffffffffffffffffffffffffffffffff1614156112c5576112ab600560009054906101000a900473ffffffffffffffffffffffffffffffffffffffff16848360016000600560009054906101000a900473ffffffffffffffffffffffffffffffffffffffff1673ffffffffffffffffffffffffffffffffffffffff1673ffffffffffffffffffffffffffffffffffffffff16815260200190815260200160002060008873ffffffffffffffffffffffffffffffffffffffff1673ffffffffffffffffffffffffffffffffffffffff168152602001908152602001600020546112a6919061198f565b6109dd565b80600d60008282546112bd919061198f565b925050819055505b505050565b6000813590506112d981611bfc565b92915050565b6000813590506112ee81611c13565b92915050565b60006020828403121561130657600080fd5b6000611314848285016112ca565b91505092915050565b6000806040838503121561133057600080fd5b600061133e858286016112ca565b925050602061134f858286016112ca565b9150509250929050565b60008060006060848603121561136e57600080fd5b600061137c868287016112ca565b935050602061138d868287016112ca565b925050604061139e868287016112df565b9150509250925092565b600080604083850312156113bb57600080fd5b60006113c9858286016112ca565b92505060206113da858286016112df565b9150509250929050565b6113ed81611ab6565b82525050565b60006113fe82611973565b611408818561197e565b9350611418818560208601611af9565b61142181611beb565b840191505092915050565b600061143960328361197e565b91507f546f6b656e54696d656c6f636b3a2063757272656e742074696d65206973206260008301527f65666f72652072656c656173652074696d6500000000000000000000000000006020830152604082019050919050565b600061149f60238361197e565b91507f45524332303a207472616e7366657220746f20746865207a65726f206164647260008301527f65737300000000000000000000000000000000000000000000000000000000006020830152604082019050919050565b600061150560228361197e565b91507f45524332303a20617070726f766520746f20746865207a65726f20616464726560008301527f73730000000000000000000000000000000000000000000000000000000000006020830152604082019050919050565b600061156b60268361197e565b91507f45524332303a207472616e7366657220616d6f756e742065786365656473206260008301527f616c616e636500000000000000000000000000000000000000000000000000006020830152604082019050919050565b60006115d160288361197e565b91507f45524332303a207472616e7366657220616d6f756e742065786365656473206160008301527f6c6c6f77616e63650000000000000000000000000000000000000000000000006020830152604082019050919050565b600061163760258361197e565b91507f45524332303a207472616e736665722066726f6d20746865207a65726f20616460008301527f64726573730000000000000000000000000000000000000000000000000000006020830152604082019050919050565b600061169d60248361197e565b91507f45524332303a20617070726f76652066726f6d20746865207a65726f2061646460008301527f72657373000000000000000000000000000000000000000000000000000000006020830152604082019050919050565b600061170360258361197e565b91507f45524332303a2064656372656173656420616c6c6f77616e63652062656c6f7760008301527f207a65726f0000000000000000000000000000000000000000000000000000006020830152604082019050919050565b600061176960238361197e565b91507f546f6b656e54696d656c6f636b3a206e6f20746f6b656e7320746f2072656c6560008301527f61736500000000000000000000000000000000000000000000000000000000006020830152604082019050919050565b6117cb81611ae2565b82525050565b6117da81611aec565b82525050565b60006020820190506117f560008301846113e4565b92915050565b6000602082019050818103600083015261181581846113f3565b905092915050565b600060208201905081810360008301526118368161142c565b9050919050565b6000602082019050818103600083015261185681611492565b9050919050565b60006020820190508181036000830152611876816114f8565b9050919050565b600060208201905081810360008301526118968161155e565b9050919050565b600060208201905081810360008301526118b6816115c4565b9050919050565b600060208201905081810360008301526118d68161162a565b9050919050565b600060208201905081810360008301526118f681611690565b9050919050565b60006020820190508181036000830152611916816116f6565b9050919050565b600060208201905081810360008301526119368161175c565b9050919050565b600060208201905061195260008301846117c2565b92915050565b600060208201905061196d60008301846117d1565b92915050565b600081519050919050565b600082825260208201905092915050565b600061199a82611ae2565b91506119a583611ae2565b9250827fffffffffffffffffffffffffffffffffffffffffffffffffffffffffffffffff038211156119da576119d9611b5e565b5b828201905092915050565b60006119f082611ae2565b91506119fb83611ae2565b925082611a0b57611a0a611b8d565b5b828204905092915050565b6000611a2182611ae2565b9150611a2c83611ae2565b9250817fffffffffffffffffffffffffffffffffffffffffffffffffffffffffffffffff0483118215151615611a6557611a64611b5e565b5b828202905092915050565b6000611a7b82611ae2565b9150611a8683611ae2565b925082821015611a9957611a98611b5e565b5b828203905092915050565b6000611aaf82611ac2565b9050919050565b60008115159050919050565b600073ffffffffffffffffffffffffffffffffffffffff82169050919050565b6000819050919050565b600060ff82169050919050565b60005b83811015611b17578082015181840152602081019050611afc565b83811115611b26576000848401525b50505050565b60006002820490506001821680611b4457607f821691505b60208210811415611b5857611b57611bbc565b5b50919050565b7f4e487b7100000000000000000000000000000000000000000000000000000000600052601160045260246000fd5b7f4e487b7100000000000000000000000000000000000000000000000000000000600052601260045260246000fd5b7f4e487b7100000000000000000000000000000000000000000000000000000000600052602260045260246000fd5b6000601f19601f8301169050919050565b611c0581611aa4565b8114611c1057600080fd5b50565b611c1c81611ae2565b8114611c2757600080fd5b5056fea26469706673582212202cf9b9867407621987ff2411a582fe8f90cc451c3212903d96e89529e150059a64736f6c63430008000033",
  "immutableReferences": {},
  "source": "// SPDX-License-Identifier: MIT\npragma solidity >=0.4.22 <0.9.0;\n\nimport \"../node_modules/@openzeppelin/contracts/token/ERC20/ERC20.sol\";\n\ncontract XYZ is ERC20 {\n\n  address private owner;\n  uint256 public creationTime;                       // The date that the contract deployed\n  uint256 public deadline;                           // The deadline to deposit\n  uint256 private T1;\n  uint256 private T2;\n  uint256 private T3;\n  uint256 private T4;\n\n  uint256 public currentTime;\n  uint256 public totalDeposit;                                   // Total amount of deposit in the bank\n  uint256 private deposit;\n  uint256 public reward;\n  uint256 public R;                                        //reward of the bank\n  uint256 public T;                                        //time period constant\n\n  modifier depositPeriod(address to) {\n    currentTime = block.timestamp;\n    deadline = creationTime + T;\n    if (to == owner && deadline < currentTime) revert();\n    _;\n  }\n\n  modifier lockPeriod(address to) {\n    currentTime = block.timestamp;\n    T1 = creationTime + T;\n    T2 = creationTime + 2*T;\n    if (to == msg.sender && T1 < currentTime && T2 > currentTime) revert();\n    _;\n  }\n\n\n  constructor(string memory _name, string memory _symbol, uint _initialSupply)\n  ERC20(_name, _symbol) {\n    require(_initialSupply > 0, \"INITIAL_SUPPLY has to be greater than 0\");\n    _mint(msg.sender, _initialSupply);\n    owner = payable(msg.sender);\n    creationTime = block.timestamp;\n    R = 1000;\n    T = 60*1; // 1 minutes\n\n  }\n\n/**\n  * @notice Transfers tokens held by timelock to beneficiary.\n  */\nfunction release() public virtual {\nrequire(block.timestamp >= releaseTime(), \"TokenTimelock: current time is before release time\");\n\nuint256 amount = R;\nrequire(amount > 0, \"TokenTimelock: no tokens to release\");\n\ntransfer(owner, amount);\n}\n\n/**\n * @return the time when the tokens are released.\n */\nfunction releaseTime() public view virtual returns (uint256) {\nreturn creationTime + 4*T;\n}\n\n  /**\n * @dev Hook that is called before any transfer of tokens. This includes\n * minting and burning.\n *\n * Calling conditions:\n *\n * - when `from` and `to` are both non-zero, `amount` of ``from``'s tokens\n * will be transferred to `to`.\n * - when `from` is zero, `amount` tokens will be minted for `to`.\n * - when `to` is zero, `amount` of ``from``'s tokens will be burned.\n * - `from` and `to` are never both zero.\n *\n * To learn more about hooks, head to xref:ROOT:extending-contracts.adoc#using-hooks[Using Hooks].\n */\n  function _beforeTokenTransfer(\n    address from,\n    address to,\n    uint256 amount\n // ) internal virtual override depositPeriod(to) lockPeriod(to){\n  ) internal virtual override {\n\n    if ( totalDeposit != 0 ){\n      reward = 0;\n      if (from == owner && to == msg.sender){ // condition satisfies at transferFrom()\n        currentTime = block.timestamp;\n        T1 = creationTime + T;\n        T2 = creationTime + 2*T;\n        T3 = creationTime + 3*T;\n        T4 = creationTime + 4*T;\n        deposit = allowance(owner, msg.sender);\n\n        if (currentTime > T2){\n          reward += R*(deposit / totalDeposit)*20/100;\n        } else if (currentTime > T3){\n          reward += R*(deposit / totalDeposit)*30/100;\n        }else if (currentTime > T4){\n          reward += R*(deposit / totalDeposit)*50/100;\n        }else{\n          reward = 0;\n        }\n\n        require(R >= reward, \"ERC20: transfer amount exceeds balance\");\n        unchecked {\n          R -=  reward;\n        }\n        _balances[to] += reward;\n        totalDeposit -= amount;\n\n      }\n\n    } else {\n      // If the total deposit is zero there is no reward.\n      reward = 0;\n    }\n  }\n\n  /**\n * @dev Hook that is called after any transfer of tokens. This includes\n * minting and burning.\n *\n * Calling conditions:\n *\n * - when `from` and `to` are both non-zero, `amount` of ``from``'s tokens\n * has been transferred to `to`.\n * - when `from` is zero, `amount` tokens have been minted for `to`.\n * - when `to` is zero, `amount` of ``from``'s tokens have been burned.\n * - `from` and `to` are never both zero.\n *\n * To learn more about hooks, head to xref:ROOT:extending-contracts.adoc#using-hooks[Using Hooks].\n */\n  function _afterTokenTransfer(\n    address from,\n    address to,\n    uint256 amount\n  ) internal virtual override {\n\n    if (to == owner) {\n      _approve(owner, from, _allowances[owner][from] + amount);\n      totalDeposit += amount;\n    }\n  }\n\n\n}",
  "sourcePath": "/Users/iberat/tracelabs_hiring_task/contracts/XYZ.sol",
  "compiler": {
    "name": "solc",
    "version": "0.8.0+commit.c7dfd78e.Emscripten.clang"
  },
  "schemaVersion": "3.4.3",
  "updatedAt": "2021-09-20T13:43:28.053Z",
  "devdoc": {
    "kind": "dev",
    "methods": {
      "allowance(address,address)": {
        "details": "See {IERC20-allowance}."
      },
      "approve(address,uint256)": {
        "details": "See {IERC20-approve}. Requirements: - `spender` cannot be the zero address."
      },
      "balanceOf(address)": {
        "details": "See {IERC20-balanceOf}."
      },
      "decimals()": {
        "details": "Returns the number of decimals used to get its user representation. For example, if `decimals` equals `2`, a balance of `505` tokens should be displayed to a user as `5.05` (`505 / 10 ** 2`). Tokens usually opt for a value of 18, imitating the relationship between Ether and Wei. This is the value {ERC20} uses, unless this function is overridden; NOTE: This information is only used for _display_ purposes: it in no way affects any of the arithmetic of the contract, including {IERC20-balanceOf} and {IERC20-transfer}."
      },
      "decreaseAllowance(address,uint256)": {
        "details": "Atomically decreases the allowance granted to `spender` by the caller. This is an alternative to {approve} that can be used as a mitigation for problems described in {IERC20-approve}. Emits an {Approval} event indicating the updated allowance. Requirements: - `spender` cannot be the zero address. - `spender` must have allowance for the caller of at least `subtractedValue`."
      },
      "increaseAllowance(address,uint256)": {
        "details": "Atomically increases the allowance granted to `spender` by the caller. This is an alternative to {approve} that can be used as a mitigation for problems described in {IERC20-approve}. Emits an {Approval} event indicating the updated allowance. Requirements: - `spender` cannot be the zero address."
      },
      "name()": {
        "details": "Returns the name of the token."
      },
      "releaseTime()": {
        "returns": {
          "_0": "the time when the tokens are released."
        }
      },
      "symbol()": {
        "details": "Returns the symbol of the token, usually a shorter version of the name.ftran"
      },
      "totalSupply()": {
        "details": "See {IERC20-totalSupply}."
      },
      "transfer(address,uint256)": {
        "details": "See {IERC20-transfer}. Requirements: - `recipient` cannot be the zero address. - the caller must have a balance of at least `amount`."
      },
      "transferFrom(address,address,uint256)": {
        "details": "See {IERC20-transferFrom}. Emits an {Approval} event indicating the updated allowance. This is not required by the EIP. See the note at the beginning of {ERC20}. Requirements: - `sender` and `recipient` cannot be the zero address. - `sender` must have a balance of at least `amount`. - the caller must have allowance for ``sender``'s tokens of at least `amount`."
      }
    },
    "version": 1
  },
  "userdoc": {
    "kind": "user",
    "methods": {
      "release()": {
        "notice": "Transfers tokens held by timelock to beneficiary."
      }
    },
    "version": 1
  }
}